{
  "_format": "hh-sol-artifact-1",
  "contractName": "SssssmokinFinance",
  "sourceName": "contracts/SssssmokinFinance.sol",
  "abi": [
    {
      "inputs": [],
      "name": "NoneBenifits",
      "type": "error"
    },
    {
      "inputs": [],
      "name": "NotEnoughCredit",
      "type": "error"
    },
    {
      "inputs": [],
      "name": "NotEnoughStock",
      "type": "error"
    },
    {
      "inputs": [],
      "name": "NotProvideToken",
      "type": "error"
    },
    {
      "inputs": [],
      "name": "RepaymentNotCorrect",
      "type": "error"
    },
    {
      "anonymous": false,
      "inputs": [
        {
          "indexed": false,
          "internalType": "uint256",
          "name": "amount",
          "type": "uint256"
        },
        {
          "indexed": false,
          "internalType": "uint256",
          "name": "exchange",
          "type": "uint256"
        }
      ],
      "name": "DepositForEthSuccess",
      "type": "event"
    },
    {
      "anonymous": false,
      "inputs": [
        {
          "indexed": false,
          "internalType": "uint256",
          "name": "amount",
          "type": "uint256"
        },
        {
          "indexed": false,
          "internalType": "address",
          "name": "token",
          "type": "address"
        },
        {
          "indexed": false,
          "internalType": "uint256",
          "name": "exchange",
          "type": "uint256"
        }
      ],
      "name": "DepositForTokenSuccess",
      "type": "event"
    },
    {
      "anonymous": false,
      "inputs": [
        {
          "indexed": true,
          "internalType": "address",
          "name": "previousOwner",
          "type": "address"
        },
        {
          "indexed": true,
          "internalType": "address",
          "name": "newOwner",
          "type": "address"
        }
      ],
      "name": "OwnershipTransferred",
      "type": "event"
    },
    {
      "anonymous": false,
      "inputs": [
        {
          "indexed": false,
          "internalType": "uint256",
          "name": "pos",
          "type": "uint256"
        },
        {
          "indexed": false,
          "internalType": "uint256",
          "name": "remain",
          "type": "uint256"
        }
      ],
      "name": "RepaymentSucess",
      "type": "event"
    },
    {
      "stateMutability": "payable",
      "type": "fallback"
    },
    {
      "inputs": [
        {
          "internalType": "address",
          "name": "token",
          "type": "address"
        }
      ],
      "name": "addProvideTokens",
      "outputs": [],
      "stateMutability": "nonpayable",
      "type": "function"
    },
    {
      "inputs": [
        {
          "internalType": "address",
          "name": "token",
          "type": "address"
        },
        {
          "internalType": "uint256",
          "name": "amount",
          "type": "uint256"
        }
      ],
      "name": "deposit",
      "outputs": [],
      "stateMutability": "nonpayable",
      "type": "function"
    },
    {
      "inputs": [
        {
          "internalType": "uint256",
          "name": "amount",
          "type": "uint256"
        }
      ],
      "name": "deposit",
      "outputs": [],
      "stateMutability": "nonpayable",
      "type": "function"
    },
    {
      "inputs": [],
      "name": "getBenifits",
      "outputs": [
        {
          "components": [
            {
              "internalType": "uint32",
              "name": "ratio",
              "type": "uint32"
            },
            {
              "internalType": "uint32",
              "name": "apr",
              "type": "uint32"
            },
            {
              "internalType": "uint64",
              "name": "validityTime",
              "type": "uint64"
            },
            {
              "internalType": "uint128",
              "name": "credit",
              "type": "uint128"
            }
          ],
          "internalType": "struct SssssmokinFinance.Benefits[]",
          "name": "",
          "type": "tuple[]"
        }
      ],
      "stateMutability": "view",
      "type": "function"
    },
    {
      "inputs": [
        {
          "internalType": "uint256",
          "name": "tokenId",
          "type": "uint256"
        }
      ],
      "name": "getBenifits",
      "outputs": [
        {
          "components": [
            {
              "internalType": "uint32",
              "name": "ratio",
              "type": "uint32"
            },
            {
              "internalType": "uint32",
              "name": "apr",
              "type": "uint32"
            },
            {
              "internalType": "uint64",
              "name": "validityTime",
              "type": "uint64"
            },
            {
              "internalType": "uint128",
              "name": "credit",
              "type": "uint128"
            }
          ],
          "internalType": "struct SssssmokinFinance.Benefits",
          "name": "",
          "type": "tuple"
        }
      ],
      "stateMutability": "view",
      "type": "function"
    },
    {
      "inputs": [
        {
          "internalType": "uint256",
          "name": "tokenId",
          "type": "uint256"
        }
      ],
      "name": "getCredit",
      "outputs": [
        {
          "internalType": "uint256",
          "name": "",
          "type": "uint256"
        }
      ],
      "stateMutability": "view",
      "type": "function"
    },
    {
      "inputs": [],
      "name": "getMargin",
      "outputs": [
        {
          "internalType": "uint256",
          "name": "",
          "type": "uint256"
        }
      ],
      "stateMutability": "view",
      "type": "function"
    },
    {
      "inputs": [
        {
          "internalType": "address",
          "name": "user",
          "type": "address"
        }
      ],
      "name": "getMargin",
      "outputs": [
        {
          "internalType": "uint256",
          "name": "",
          "type": "uint256"
        }
      ],
      "stateMutability": "view",
      "type": "function"
    },
    {
      "inputs": [
        {
          "internalType": "address",
          "name": "user",
          "type": "address"
        }
      ],
      "name": "getUserBenifits",
      "outputs": [
        {
          "components": [
            {
              "internalType": "uint32",
              "name": "ratio",
              "type": "uint32"
            },
            {
              "internalType": "uint32",
              "name": "apr",
              "type": "uint32"
            },
            {
              "internalType": "uint64",
              "name": "validityTime",
              "type": "uint64"
            },
            {
              "internalType": "uint128",
              "name": "credit",
              "type": "uint128"
            }
          ],
          "internalType": "struct SssssmokinFinance.Benefits",
          "name": "",
          "type": "tuple"
        }
      ],
      "stateMutability": "view",
      "type": "function"
    },
    {
      "inputs": [],
      "name": "getUserBenifits",
      "outputs": [
        {
          "components": [
            {
              "internalType": "uint32",
              "name": "ratio",
              "type": "uint32"
            },
            {
              "internalType": "uint32",
              "name": "apr",
              "type": "uint32"
            },
            {
              "internalType": "uint64",
              "name": "validityTime",
              "type": "uint64"
            },
            {
              "internalType": "uint128",
              "name": "credit",
              "type": "uint128"
            }
          ],
          "internalType": "struct SssssmokinFinance.Benefits",
          "name": "",
          "type": "tuple"
        }
      ],
      "stateMutability": "view",
      "type": "function"
    },
    {
      "inputs": [],
      "name": "getUserLoaning",
      "outputs": [
        {
          "components": [
            {
              "internalType": "uint32",
              "name": "apr",
              "type": "uint32"
            },
            {
              "internalType": "uint64",
              "name": "time",
              "type": "uint64"
            },
            {
              "internalType": "uint128",
              "name": "margin",
              "type": "uint128"
            },
            {
              "internalType": "uint256",
              "name": "exchange",
              "type": "uint256"
            },
            {
              "internalType": "address",
              "name": "token",
              "type": "address"
            }
          ],
          "internalType": "struct SssssmokinFinance.Loan[]",
          "name": "",
          "type": "tuple[]"
        }
      ],
      "stateMutability": "view",
      "type": "function"
    },
    {
      "inputs": [
        {
          "internalType": "address",
          "name": "user",
          "type": "address"
        }
      ],
      "name": "getUserLoaning",
      "outputs": [
        {
          "components": [
            {
              "internalType": "uint32",
              "name": "apr",
              "type": "uint32"
            },
            {
              "internalType": "uint64",
              "name": "time",
              "type": "uint64"
            },
            {
              "internalType": "uint128",
              "name": "margin",
              "type": "uint128"
            },
            {
              "internalType": "uint256",
              "name": "exchange",
              "type": "uint256"
            },
            {
              "internalType": "address",
              "name": "token",
              "type": "address"
            }
          ],
          "internalType": "struct SssssmokinFinance.Loan[]",
          "name": "",
          "type": "tuple[]"
        }
      ],
      "stateMutability": "view",
      "type": "function"
    },
    {
      "inputs": [
        {
          "internalType": "address",
          "name": "token",
          "type": "address"
        }
      ],
      "name": "isProvideToken",
      "outputs": [
        {
          "internalType": "bool",
          "name": "",
          "type": "bool"
        }
      ],
      "stateMutability": "view",
      "type": "function"
    },
    {
      "inputs": [],
      "name": "membershipTokenContract",
      "outputs": [
        {
          "internalType": "contract IERC1155",
          "name": "",
          "type": "address"
        }
      ],
      "stateMutability": "view",
      "type": "function"
    },
    {
      "inputs": [],
      "name": "owner",
      "outputs": [
        {
          "internalType": "address",
          "name": "",
          "type": "address"
        }
      ],
      "stateMutability": "view",
      "type": "function"
    },
    {
      "inputs": [
        {
          "internalType": "address",
          "name": "",
          "type": "address"
        }
      ],
      "name": "provideTokens",
      "outputs": [
        {
          "internalType": "bool",
          "name": "",
          "type": "bool"
        }
      ],
      "stateMutability": "view",
      "type": "function"
    },
    {
      "inputs": [
        {
          "internalType": "uint256",
          "name": "",
          "type": "uint256"
        }
      ],
      "name": "provideTokensArray",
      "outputs": [
        {
          "internalType": "address",
          "name": "",
          "type": "address"
        }
      ],
      "stateMutability": "view",
      "type": "function"
    },
    {
      "inputs": [
        {
          "internalType": "uint256",
          "name": "tokenId",
          "type": "uint256"
        }
      ],
      "name": "removeBenifist",
      "outputs": [],
      "stateMutability": "nonpayable",
      "type": "function"
    },
    {
      "inputs": [
        {
          "internalType": "uint256",
          "name": "pos",
          "type": "uint256"
        }
      ],
      "name": "removeProvideTokens",
      "outputs": [],
      "stateMutability": "nonpayable",
      "type": "function"
    },
    {
      "inputs": [
        {
          "internalType": "address",
          "name": "token",
          "type": "address"
        }
      ],
      "name": "removeProvideTokens",
      "outputs": [],
      "stateMutability": "nonpayable",
      "type": "function"
    },
    {
      "inputs": [],
      "name": "renounceOwnership",
      "outputs": [],
      "stateMutability": "nonpayable",
      "type": "function"
    },
    {
      "inputs": [
        {
          "internalType": "uint256",
          "name": "pos",
          "type": "uint256"
        }
      ],
      "name": "repayment",
      "outputs": [],
      "stateMutability": "payable",
      "type": "function"
    },
    {
      "inputs": [
        {
          "internalType": "uint256",
          "name": "tokenId",
          "type": "uint256"
        },
        {
          "components": [
            {
              "internalType": "uint32",
              "name": "ratio",
              "type": "uint32"
            },
            {
              "internalType": "uint32",
              "name": "apr",
              "type": "uint32"
            },
            {
              "internalType": "uint64",
              "name": "validityTime",
              "type": "uint64"
            },
            {
              "internalType": "uint128",
              "name": "credit",
              "type": "uint128"
            }
          ],
          "internalType": "struct SssssmokinFinance.Benefits",
          "name": "benifist",
          "type": "tuple"
        }
      ],
      "name": "setBenifist",
      "outputs": [],
      "stateMutability": "nonpayable",
      "type": "function"
    },
    {
      "inputs": [
        {
          "internalType": "uint256[]",
          "name": "order",
          "type": "uint256[]"
        }
      ],
      "name": "setTokenIdOrder",
      "outputs": [],
      "stateMutability": "nonpayable",
      "type": "function"
    },
    {
      "inputs": [
        {
          "internalType": "uint256",
          "name": "",
          "type": "uint256"
        }
      ],
      "name": "tokenIdOrder",
      "outputs": [
        {
          "internalType": "uint256",
          "name": "",
          "type": "uint256"
        }
      ],
      "stateMutability": "view",
      "type": "function"
    },
    {
      "inputs": [
        {
          "internalType": "address",
          "name": "newOwner",
          "type": "address"
        }
      ],
      "name": "transferOwnership",
      "outputs": [],
      "stateMutability": "nonpayable",
      "type": "function"
    },
    {
      "inputs": [],
      "name": "weeeeToken",
      "outputs": [
        {
          "internalType": "contract IERC20",
          "name": "",
          "type": "address"
        }
      ],
      "stateMutability": "view",
      "type": "function"
    },
    {
      "stateMutability": "payable",
      "type": "receive"
    }
  ],
  "bytecode": "0x60806040523480156200001157600080fd5b5062000032620000266200003860201b60201c565b6200004060201b60201c565b62000104565b600033905090565b60008060009054906101000a900473ffffffffffffffffffffffffffffffffffffffff169050816000806101000a81548173ffffffffffffffffffffffffffffffffffffffff021916908373ffffffffffffffffffffffffffffffffffffffff1602179055508173ffffffffffffffffffffffffffffffffffffffff168173ffffffffffffffffffffffffffffffffffffffff167f8be0079c531659141344cd1fd0a4f28419497f9722a3daafe3b4186f6b6457e060405160405180910390a35050565b613faa80620001146000396000f3fe6080604052600436106101a05760003560e01c8063703a92c4116100ec578063d09ad0901161008a578063e1fddd7611610064578063e1fddd76146105d3578063f2fde38b146105fc578063f84f89a214610625578063f9ab632c14610662576101a7565b8063d09ad09014610530578063d55272681461056d578063da304e4d14610596576101a7565b80638da5cb5b116100c65780638da5cb5b14610476578063b6b55f25146104a1578063bd8e99d6146104ca578063c423a38714610507576101a7565b8063703a92c4146103f9578063715018a6146104365780638ad3fd201461044d576101a7565b806346e5dec3116101595780635252cf73116101335780635252cf731461035e57806364ee82d6146103895780636737b31e146103b45780636db57d12146103d0576101a7565b806346e5dec3146102cd57806347e7ef24146102f857806349c3fd8714610321576101a7565b806318467d2d146101a957806318759a5f146101d25780631d63d403146101fd5780631e63e5ec1461022857806325117b7214610265578063398873da14610290576101a7565b366101a757005b005b3480156101b557600080fd5b506101d060048036038101906101cb9190612d3a565b61069f565b005b3480156101de57600080fd5b506101e76108b6565b6040516101f49190612f3b565b60405180910390f35b34801561020957600080fd5b506102126108cd565b60405161021f9190612fbc565b60405180910390f35b34801561023457600080fd5b5061024f600480360381019061024a9190613003565b6108f3565b60405161025c9190613085565b60405180910390f35b34801561027157600080fd5b5061027a610b5b565b60405161028791906130af565b60405180910390f35b34801561029c57600080fd5b506102b760048036038101906102b29190612d3a565b610b72565b6040516102c491906130af565b60405180910390f35b3480156102d957600080fd5b506102e2610b96565b6040516102ef91906130eb565b60405180910390f35b34801561030457600080fd5b5061031f600480360381019061031a9190613106565b610bbc565b005b34801561032d57600080fd5b5061034860048036038101906103439190612d3a565b61111f565b6040516103559190613155565b60405180910390f35b34801561036a57600080fd5b5061037361115e565b6040516103809190613274565b60405180910390f35b34801561039557600080fd5b5061039e61130a565b6040516103ab9190613085565b60405180910390f35b6103ce60048036038101906103c99190612d3a565b611327565b005b3480156103dc57600080fd5b506103f760048036038101906103f29190613003565b611a08565b005b34801561040557600080fd5b50610420600480360381019061041b9190612d3a565b611ba1565b60405161042d9190613085565b60405180910390f35b34801561044257600080fd5b5061044b611c96565b005b34801561045957600080fd5b50610474600480360381019061046f9190612d3a565b611d1e565b005b34801561048257600080fd5b5061048b611e1f565b6040516104989190613155565b60405180910390f35b3480156104ad57600080fd5b506104c860048036038101906104c39190612d3a565b611e48565b005b3480156104d657600080fd5b506104f160048036038101906104ec9190613003565b61225f565b6040516104fe91906132b1565b60405180910390f35b34801561051357600080fd5b5061052e600480360381019061052991906132f0565b61227f565b005b34801561053c57600080fd5b5061055760048036038101906105529190613003565b612322565b6040516105649190612f3b565b60405180910390f35b34801561057957600080fd5b50610594600480360381019061058f9190613003565b6124c2565b005b3480156105a257600080fd5b506105bd60048036038101906105b89190612d3a565b612732565b6040516105ca91906130af565b60405180910390f35b3480156105df57600080fd5b506105fa60048036038101906105f59190613395565b612780565b005b34801561060857600080fd5b50610623600480360381019061061e9190613003565b612812565b005b34801561063157600080fd5b5061064c60048036038101906106479190613003565b61290a565b60405161065991906130af565b60405180910390f35b34801561066e57600080fd5b5061068960048036038101906106849190613003565b612b14565b60405161069691906132b1565b60405180910390f35b6106a7612b6a565b73ffffffffffffffffffffffffffffffffffffffff166106c5611e1f565b73ffffffffffffffffffffffffffffffffffffffff161461071b576040517f08c379a00000000000000000000000000000000000000000000000000000000081526004016107129061343f565b60405180910390fd5b600060036000600484815481106107355761073461345f565b5b9060005260206000200160009054906101000a900473ffffffffffffffffffffffffffffffffffffffff1673ffffffffffffffffffffffffffffffffffffffff1673ffffffffffffffffffffffffffffffffffffffff16815260200190815260200160002060006101000a81548160ff021916908315150217905550600060016004805490506107c591906134bd565b90508082101561086b57600481815481106107e3576107e261345f565b5b9060005260206000200160009054906101000a900473ffffffffffffffffffffffffffffffffffffffff16600483815481106108225761082161345f565b5b9060005260206000200160006101000a81548173ffffffffffffffffffffffffffffffffffffffff021916908373ffffffffffffffffffffffffffffffffffffffff1602179055505b600480548061087d5761087c6134f1565b5b6001900381819060005260206000200160006101000a81549073ffffffffffffffffffffffffffffffffffffffff021916905590555050565b60606108c86108c3612b6a565b612322565b905090565b600160009054906101000a900473ffffffffffffffffffffffffffffffffffffffff1681565b6108fb612c36565b600060068054905067ffffffffffffffff81111561091c5761091b613520565b5b60405190808252806020026020018201604052801561094a5781602001602082028036833780820191505090505b50905060005b81518110156109ba578382828151811061096d5761096c61345f565b5b602002602001019073ffffffffffffffffffffffffffffffffffffffff16908173ffffffffffffffffffffffffffffffffffffffff168152505080806109b29061354f565b915050610950565b506000600160009054906101000a900473ffffffffffffffffffffffffffffffffffffffff1673ffffffffffffffffffffffffffffffffffffffff16634e1273f48360066040518363ffffffff1660e01b8152600401610a1b929190613746565b60006040518083038186803b158015610a3357600080fd5b505afa158015610a47573d6000803e3d6000fd5b505050506040513d6000823e3d601f19601f82011682018060405250810190610a7091906138b2565b905060005b8151811015610b23576000828281518110610a9357610a9261345f565b5b60200260200101511415610aa657610b10565b6000610acf60068381548110610abf57610abe61345f565b5b9060005260206000200154611ba1565b90506000816040015167ffffffffffffffff1614158015610afd575042816040015167ffffffffffffffff16115b15610b0e5780945050505050610b56565b505b8080610b1b9061354f565b915050610a75565b506040517fe253024200000000000000000000000000000000000000000000000000000000815260040160405180910390fd5b919050565b6000610b6d610b68612b6a565b61290a565b905090565b60068181548110610b8257600080fd5b906000526020600020016000915090505481565b600260009054906101000a900473ffffffffffffffffffffffffffffffffffffffff1681565b8160011515600360008373ffffffffffffffffffffffffffffffffffffffff1673ffffffffffffffffffffffffffffffffffffffff16815260200190815260200160002060009054906101000a900460ff16151514610c47576040517f4857c89900000000000000000000000000000000000000000000000000000000815260040160405180910390fd5b6000610c5161130a565b9050600083610c5e610b5b565b610c6891906138fb565b90508082606001516fffffffffffffffffffffffffffffffff161015610cba576040517fa7fd379200000000000000000000000000000000000000000000000000000000815260040160405180910390fd5b6000610bb8670de0b6b3a7640000610cd29190613980565b90506000606482856000015163ffffffff1688610cef91906139b1565b610cf991906139b1565b610d039190613980565b9050600087905060008173ffffffffffffffffffffffffffffffffffffffff166370a08231306040518263ffffffff1660e01b8152600401610d459190613155565b60206040518083038186803b158015610d5d57600080fd5b505afa158015610d71573d6000803e3d6000fd5b505050506040513d601f19601f82011682018060405250810190610d959190613a0b565b905082811015610dd1576040517f3633f81800000000000000000000000000000000000000000000000000000000815260040160405180910390fd5b600260009054906101000a900473ffffffffffffffffffffffffffffffffffffffff1673ffffffffffffffffffffffffffffffffffffffff166323b872dd610e17612b6a565b308b6040518463ffffffff1660e01b8152600401610e3793929190613a38565b602060405180830381600087803b158015610e5157600080fd5b505af1158015610e65573d6000803e3d6000fd5b505050506040513d601f19601f82011682018060405250810190610e899190613a9b565b508173ffffffffffffffffffffffffffffffffffffffff1663a9059cbb610eae612b6a565b856040518363ffffffff1660e01b8152600401610ecc929190613ac8565b602060405180830381600087803b158015610ee657600080fd5b505af1158015610efa573d6000803e3d6000fd5b505050506040513d601f19601f82011682018060405250810190610f1e9190613a9b565b5060076000610f2b612b6a565b73ffffffffffffffffffffffffffffffffffffffff1673ffffffffffffffffffffffffffffffffffffffff1681526020019081526020016000206040518060a00160405280886020015163ffffffff1681526020014267ffffffffffffffff1681526020018a6fffffffffffffffffffffffffffffffff1681526020018581526020018b73ffffffffffffffffffffffffffffffffffffffff16815250908060018154018082558091505060019003906000526020600020906003020160009091909190915060008201518160000160006101000a81548163ffffffff021916908363ffffffff16021790555060208201518160000160046101000a81548167ffffffffffffffff021916908367ffffffffffffffff160217905550604082015181600001600c6101000a8154816fffffffffffffffffffffffffffffffff02191690836fffffffffffffffffffffffffffffffff1602179055506060820151816001015560808201518160020160006101000a81548173ffffffffffffffffffffffffffffffffffffffff021916908373ffffffffffffffffffffffffffffffffffffffff16021790555050507f707820251fb46777f43913e0f79a5bfe897ba7feb06089f3ed695614d5b5dd3e888a8560405161110c93929190613af1565b60405180910390a1505050505050505050565b6004818154811061112f57600080fd5b906000526020600020016000915054906101000a900473ffffffffffffffffffffffffffffffffffffffff1681565b6060600060068054905067ffffffffffffffff81111561118157611180613520565b5b6040519080825280602002602001820160405280156111ba57816020015b6111a7612c36565b81526020019060019003908161119f5790505b50905060005b6006805490508110156113025760056000600683815481106111e5576111e461345f565b5b906000526020600020015481526020019081526020016000206040518060800160405290816000820160009054906101000a900463ffffffff1663ffffffff1663ffffffff1681526020016000820160049054906101000a900463ffffffff1663ffffffff1663ffffffff1681526020016000820160089054906101000a900467ffffffffffffffff1667ffffffffffffffff1667ffffffffffffffff1681526020016000820160109054906101000a90046fffffffffffffffffffffffffffffffff166fffffffffffffffffffffffffffffffff166fffffffffffffffffffffffffffffffff16815250508282815181106112e4576112e361345f565b5b602002602001018190525080806112fa9061354f565b9150506111c0565b508091505090565b611312612c36565b61132261131d612b6a565b6108f3565b905090565b600060076000611335612b6a565b73ffffffffffffffffffffffffffffffffffffffff1673ffffffffffffffffffffffffffffffffffffffff1681526020019081526020016000209050808054905082106113b7576040517f08c379a00000000000000000000000000000000000000000000000000000000081526004016113ae90613b74565b60405180910390fd5b60008183815481106113cc576113cb61345f565b5b90600052602060002090600302016040518060a00160405290816000820160009054906101000a900463ffffffff1663ffffffff1663ffffffff1681526020016000820160049054906101000a900467ffffffffffffffff1667ffffffffffffffff1667ffffffffffffffff16815260200160008201600c9054906101000a90046fffffffffffffffffffffffffffffffff166fffffffffffffffffffffffffffffffff166fffffffffffffffffffffffffffffffff168152602001600182015481526020016002820160009054906101000a900473ffffffffffffffffffffffffffffffffffffffff1673ffffffffffffffffffffffffffffffffffffffff1673ffffffffffffffffffffffffffffffffffffffff168152505090506000816020015167ffffffffffffffff164261150591906134bd565b9050600063bbf81e00836000015163ffffffff168385604001516fffffffffffffffffffffffffffffffff1661153b91906139b1565b61154591906139b1565b61154f9190613980565b9050600073ffffffffffffffffffffffffffffffffffffffff16836080015173ffffffffffffffffffffffffffffffffffffffff1614611633576000836080015190508073ffffffffffffffffffffffffffffffffffffffff166323b872dd6115b6612b6a565b3087606001516040518463ffffffff1660e01b81526004016115da93929190613a38565b602060405180830381600087803b1580156115f457600080fd5b505af1158015611608573d6000803e3d6000fd5b505050506040513d601f19601f8201168201806040525081019061162c9190613a9b565b5050611671565b82606001513414611670576040517f329099d800000000000000000000000000000000000000000000000000000000815260040160405180910390fd5b5b60008184604001516fffffffffffffffffffffffffffffffff16111561176f578184604001516fffffffffffffffffffffffffffffffff166116b391906134bd565b9050600260009054906101000a900473ffffffffffffffffffffffffffffffffffffffff1673ffffffffffffffffffffffffffffffffffffffff166323b872dd306116fc612b6a565b846040518463ffffffff1660e01b815260040161171b93929190613a38565b602060405180830381600087803b15801561173557600080fd5b505af1158015611749573d6000803e3d6000fd5b505050506040513d601f19601f8201168201806040525081019061176d9190613a9b565b505b60006001868054905061178291906134bd565b9050808710156119185785818154811061179f5761179e61345f565b5b90600052602060002090600302018688815481106117c0576117bf61345f565b5b90600052602060002090600302016000820160009054906101000a900463ffffffff168160000160006101000a81548163ffffffff021916908363ffffffff1602179055506000820160049054906101000a900467ffffffffffffffff168160000160046101000a81548167ffffffffffffffff021916908367ffffffffffffffff16021790555060008201600c9054906101000a90046fffffffffffffffffffffffffffffffff1681600001600c6101000a8154816fffffffffffffffffffffffffffffffff02191690836fffffffffffffffffffffffffffffffff160217905550600182015481600101556002820160009054906101000a900473ffffffffffffffffffffffffffffffffffffffff168160020160006101000a81548173ffffffffffffffffffffffffffffffffffffffff021916908373ffffffffffffffffffffffffffffffffffffffff1602179055509050505b85805480611929576119286134f1565b5b6001900381819060005260206000209060030201600080820160006101000a81549063ffffffff02191690556000820160046101000a81549067ffffffffffffffff021916905560008201600c6101000a8154906fffffffffffffffffffffffffffffffff021916905560018201600090556002820160006101000a81549073ffffffffffffffffffffffffffffffffffffffff0219169055505090557fec5d3efe21b7ad3fd9e0536b321f6ac73144e22f136f959d00d5b05a4eb28aa687836040516119f7929190613b94565b60405180910390a150505050505050565b611a10612b6a565b73ffffffffffffffffffffffffffffffffffffffff16611a2e611e1f565b73ffffffffffffffffffffffffffffffffffffffff1614611a84576040517f08c379a0000000000000000000000000000000000000000000000000000000008152600401611a7b9061343f565b60405180910390fd5b60011515600360008373ffffffffffffffffffffffffffffffffffffffff1673ffffffffffffffffffffffffffffffffffffffff16815260200190815260200160002060009054906101000a900460ff1615151415611ae257611b9e565b6001600360008373ffffffffffffffffffffffffffffffffffffffff1673ffffffffffffffffffffffffffffffffffffffff16815260200190815260200160002060006101000a81548160ff0219169083151502179055506004819080600181540180825580915050600190039060005260206000200160009091909190916101000a81548173ffffffffffffffffffffffffffffffffffffffff021916908373ffffffffffffffffffffffffffffffffffffffff1602179055505b50565b611ba9612c36565b600560008381526020019081526020016000206040518060800160405290816000820160009054906101000a900463ffffffff1663ffffffff1663ffffffff1681526020016000820160049054906101000a900463ffffffff1663ffffffff1663ffffffff1681526020016000820160089054906101000a900467ffffffffffffffff1667ffffffffffffffff1667ffffffffffffffff1681526020016000820160109054906101000a90046fffffffffffffffffffffffffffffffff166fffffffffffffffffffffffffffffffff166fffffffffffffffffffffffffffffffff16815250509050919050565b611c9e612b6a565b73ffffffffffffffffffffffffffffffffffffffff16611cbc611e1f565b73ffffffffffffffffffffffffffffffffffffffff1614611d12576040517f08c379a0000000000000000000000000000000000000000000000000000000008152600401611d099061343f565b60405180910390fd5b611d1c6000612b72565b565b611d26612b6a565b73ffffffffffffffffffffffffffffffffffffffff16611d44611e1f565b73ffffffffffffffffffffffffffffffffffffffff1614611d9a576040517f08c379a0000000000000000000000000000000000000000000000000000000008152600401611d919061343f565b60405180910390fd5b60056000828152602001908152602001600020600080820160006101000a81549063ffffffff02191690556000820160046101000a81549063ffffffff02191690556000820160086101000a81549067ffffffffffffffff02191690556000820160106101000a8154906fffffffffffffffffffffffffffffffff0219169055505050565b60008060009054906101000a900473ffffffffffffffffffffffffffffffffffffffff16905090565b6000611e5261130a565b9050600082611e5f610b5b565b611e6991906138fb565b90508082606001516fffffffffffffffffffffffffffffffff161015611ebb576040517fa7fd379200000000000000000000000000000000000000000000000000000000815260040160405180910390fd5b6000610bb8670de0b6b3a7640000611ed39190613980565b90506000606482856000015163ffffffff1687611ef091906139b1565b611efa91906139b1565b611f049190613980565b90506000309050818173ffffffffffffffffffffffffffffffffffffffff16311015611f5c576040517f3633f81800000000000000000000000000000000000000000000000000000000815260040160405180910390fd5b600260009054906101000a900473ffffffffffffffffffffffffffffffffffffffff1673ffffffffffffffffffffffffffffffffffffffff166323b872dd611fa2612b6a565b30896040518463ffffffff1660e01b8152600401611fc293929190613a38565b602060405180830381600087803b158015611fdc57600080fd5b505af1158015611ff0573d6000803e3d6000fd5b505050506040513d601f19601f820116820180604052508101906120149190613a9b565b5061201d612b6a565b73ffffffffffffffffffffffffffffffffffffffff166108fc839081150290604051600060405180830381858888f19350505050158015612062573d6000803e3d6000fd5b506007600061206f612b6a565b73ffffffffffffffffffffffffffffffffffffffff1673ffffffffffffffffffffffffffffffffffffffff1681526020019081526020016000206040518060a00160405280876020015163ffffffff1681526020014267ffffffffffffffff168152602001886fffffffffffffffffffffffffffffffff168152602001848152602001600073ffffffffffffffffffffffffffffffffffffffff16815250908060018154018082558091505060019003906000526020600020906003020160009091909190915060008201518160000160006101000a81548163ffffffff021916908363ffffffff16021790555060208201518160000160046101000a81548167ffffffffffffffff021916908367ffffffffffffffff160217905550604082015181600001600c6101000a8154816fffffffffffffffffffffffffffffffff02191690836fffffffffffffffffffffffffffffffff1602179055506060820151816001015560808201518160020160006101000a81548173ffffffffffffffffffffffffffffffffffffffff021916908373ffffffffffffffffffffffffffffffffffffffff16021790555050507f33b118750ab0273342b56cb6387e0ade9135c54ad0525ad041284f2ed6adccf9868360405161224f929190613b94565b60405180910390a1505050505050565b60036020528060005260406000206000915054906101000a900460ff1681565b612287612b6a565b73ffffffffffffffffffffffffffffffffffffffff166122a5611e1f565b73ffffffffffffffffffffffffffffffffffffffff16146122fb576040517f08c379a00000000000000000000000000000000000000000000000000000000081526004016122f29061343f565b60405180910390fd5b8060056000848152602001908152602001600020818161231b9190613ed4565b9050505050565b6060600760008373ffffffffffffffffffffffffffffffffffffffff1673ffffffffffffffffffffffffffffffffffffffff168152602001908152602001600020805480602002602001604051908101604052809291908181526020016000905b828210156124b757838290600052602060002090600302016040518060a00160405290816000820160009054906101000a900463ffffffff1663ffffffff1663ffffffff1681526020016000820160049054906101000a900467ffffffffffffffff1667ffffffffffffffff1667ffffffffffffffff16815260200160008201600c9054906101000a90046fffffffffffffffffffffffffffffffff166fffffffffffffffffffffffffffffffff166fffffffffffffffffffffffffffffffff168152602001600182015481526020016002820160009054906101000a900473ffffffffffffffffffffffffffffffffffffffff1673ffffffffffffffffffffffffffffffffffffffff1673ffffffffffffffffffffffffffffffffffffffff168152505081526020019060010190612383565b505050509050919050565b6124ca612b6a565b73ffffffffffffffffffffffffffffffffffffffff166124e8611e1f565b73ffffffffffffffffffffffffffffffffffffffff161461253e576040517f08c379a00000000000000000000000000000000000000000000000000000000081526004016125359061343f565b60405180910390fd5b6000600360008373ffffffffffffffffffffffffffffffffffffffff1673ffffffffffffffffffffffffffffffffffffffff16815260200190815260200160002060006101000a81548160ff02191690831515021790555060005b60048054905081101561272e578173ffffffffffffffffffffffffffffffffffffffff16600482815481106125d1576125d061345f565b5b9060005260206000200160009054906101000a900473ffffffffffffffffffffffffffffffffffffffff1673ffffffffffffffffffffffffffffffffffffffff16141561271b576000600160048054905061262c91906134bd565b9050808210156126d2576004818154811061264a5761264961345f565b5b9060005260206000200160009054906101000a900473ffffffffffffffffffffffffffffffffffffffff16600483815481106126895761268861345f565b5b9060005260206000200160006101000a81548173ffffffffffffffffffffffffffffffffffffffff021916908373ffffffffffffffffffffffffffffffffffffffff1602179055505b60048054806126e4576126e36134f1565b5b6001900381819060005260206000200160006101000a81549073ffffffffffffffffffffffffffffffffffffffff02191690559055505b80806127269061354f565b915050612599565b5050565b60006005600083815260200190815260200160002060000160109054906101000a90046fffffffffffffffffffffffffffffffff166fffffffffffffffffffffffffffffffff169050919050565b612788612b6a565b73ffffffffffffffffffffffffffffffffffffffff166127a6611e1f565b73ffffffffffffffffffffffffffffffffffffffff16146127fc576040517f08c379a00000000000000000000000000000000000000000000000000000000081526004016127f39061343f565b60405180910390fd5b81816006919061280d929190612c86565b505050565b61281a612b6a565b73ffffffffffffffffffffffffffffffffffffffff16612838611e1f565b73ffffffffffffffffffffffffffffffffffffffff161461288e576040517f08c379a00000000000000000000000000000000000000000000000000000000081526004016128859061343f565b60405180910390fd5b600073ffffffffffffffffffffffffffffffffffffffff168173ffffffffffffffffffffffffffffffffffffffff1614156128fe576040517f08c379a00000000000000000000000000000000000000000000000000000000081526004016128f590613f54565b60405180910390fd5b61290781612b72565b50565b600080600090506000600760008573ffffffffffffffffffffffffffffffffffffffff1673ffffffffffffffffffffffffffffffffffffffff168152602001908152602001600020805480602002602001604051908101604052809291908181526020016000905b82821015612aa657838290600052602060002090600302016040518060a00160405290816000820160009054906101000a900463ffffffff1663ffffffff1663ffffffff1681526020016000820160049054906101000a900467ffffffffffffffff1667ffffffffffffffff1667ffffffffffffffff16815260200160008201600c9054906101000a90046fffffffffffffffffffffffffffffffff166fffffffffffffffffffffffffffffffff166fffffffffffffffffffffffffffffffff168152602001600182015481526020016002820160009054906101000a900473ffffffffffffffffffffffffffffffffffffffff1673ffffffffffffffffffffffffffffffffffffffff1673ffffffffffffffffffffffffffffffffffffffff168152505081526020019060010190612972565b50505050905060005b8151811015612b0957818181518110612acb57612aca61345f565b5b6020026020010151604001516fffffffffffffffffffffffffffffffff1683612af491906138fb565b92508080612b019061354f565b915050612aaf565b508192505050919050565b6000600360008373ffffffffffffffffffffffffffffffffffffffff1673ffffffffffffffffffffffffffffffffffffffff16815260200190815260200160002060009054906101000a900460ff169050919050565b600033905090565b60008060009054906101000a900473ffffffffffffffffffffffffffffffffffffffff169050816000806101000a81548173ffffffffffffffffffffffffffffffffffffffff021916908373ffffffffffffffffffffffffffffffffffffffff1602179055508173ffffffffffffffffffffffffffffffffffffffff168173ffffffffffffffffffffffffffffffffffffffff167f8be0079c531659141344cd1fd0a4f28419497f9722a3daafe3b4186f6b6457e060405160405180910390a35050565b6040518060800160405280600063ffffffff168152602001600063ffffffff168152602001600067ffffffffffffffff16815260200160006fffffffffffffffffffffffffffffffff1681525090565b828054828255906000526020600020908101928215612cc2579160200282015b82811115612cc1578235825591602001919060010190612ca6565b5b509050612ccf9190612cd3565b5090565b5b80821115612cec576000816000905550600101612cd4565b5090565b6000604051905090565b600080fd5b600080fd5b6000819050919050565b612d1781612d04565b8114612d2257600080fd5b50565b600081359050612d3481612d0e565b92915050565b600060208284031215612d5057612d4f612cfa565b5b6000612d5e84828501612d25565b91505092915050565b600081519050919050565b600082825260208201905092915050565b6000819050602082019050919050565b600063ffffffff82169050919050565b612dac81612d93565b82525050565b600067ffffffffffffffff82169050919050565b612dcf81612db2565b82525050565b60006fffffffffffffffffffffffffffffffff82169050919050565b612dfa81612dd5565b82525050565b612e0981612d04565b82525050565b600073ffffffffffffffffffffffffffffffffffffffff82169050919050565b6000612e3a82612e0f565b9050919050565b612e4a81612e2f565b82525050565b60a082016000820151612e666000850182612da3565b506020820151612e796020850182612dc6565b506040820151612e8c6040850182612df1565b506060820151612e9f6060850182612e00565b506080820151612eb26080850182612e41565b50505050565b6000612ec48383612e50565b60a08301905092915050565b6000602082019050919050565b6000612ee882612d67565b612ef28185612d72565b9350612efd83612d83565b8060005b83811015612f2e578151612f158882612eb8565b9750612f2083612ed0565b925050600181019050612f01565b5085935050505092915050565b60006020820190508181036000830152612f558184612edd565b905092915050565b6000819050919050565b6000612f82612f7d612f7884612e0f565b612f5d565b612e0f565b9050919050565b6000612f9482612f67565b9050919050565b6000612fa682612f89565b9050919050565b612fb681612f9b565b82525050565b6000602082019050612fd16000830184612fad565b92915050565b612fe081612e2f565b8114612feb57600080fd5b50565b600081359050612ffd81612fd7565b92915050565b60006020828403121561301957613018612cfa565b5b600061302784828501612fee565b91505092915050565b6080820160008201516130466000850182612da3565b5060208201516130596020850182612da3565b50604082015161306c6040850182612dc6565b50606082015161307f6060850182612df1565b50505050565b600060808201905061309a6000830184613030565b92915050565b6130a981612d04565b82525050565b60006020820190506130c460008301846130a0565b92915050565b60006130d582612f89565b9050919050565b6130e5816130ca565b82525050565b600060208201905061310060008301846130dc565b92915050565b6000806040838503121561311d5761311c612cfa565b5b600061312b85828601612fee565b925050602061313c85828601612d25565b9150509250929050565b61314f81612e2f565b82525050565b600060208201905061316a6000830184613146565b92915050565b600081519050919050565b600082825260208201905092915050565b6000819050602082019050919050565b6080820160008201516131b26000850182612da3565b5060208201516131c56020850182612da3565b5060408201516131d86040850182612dc6565b5060608201516131eb6060850182612df1565b50505050565b60006131fd838361319c565b60808301905092915050565b6000602082019050919050565b600061322182613170565b61322b818561317b565b93506132368361318c565b8060005b8381101561326757815161324e88826131f1565b975061325983613209565b92505060018101905061323a565b5085935050505092915050565b6000602082019050818103600083015261328e8184613216565b905092915050565b60008115159050919050565b6132ab81613296565b82525050565b60006020820190506132c660008301846132a2565b92915050565b600080fd5b6000608082840312156132e7576132e66132cc565b5b81905092915050565b60008060a0838503121561330757613306612cfa565b5b600061331585828601612d25565b9250506020613326858286016132d1565b9150509250929050565b600080fd5b600080fd5b600080fd5b60008083601f84011261335557613354613330565b5b8235905067ffffffffffffffff81111561337257613371613335565b5b60208301915083602082028301111561338e5761338d61333a565b5b9250929050565b600080602083850312156133ac576133ab612cfa565b5b600083013567ffffffffffffffff8111156133ca576133c9612cff565b5b6133d68582860161333f565b92509250509250929050565b600082825260208201905092915050565b7f4f776e61626c653a2063616c6c6572206973206e6f7420746865206f776e6572600082015250565b60006134296020836133e2565b9150613434826133f3565b602082019050919050565b600060208201905081810360008301526134588161341c565b9050919050565b7f4e487b7100000000000000000000000000000000000000000000000000000000600052603260045260246000fd5b7f4e487b7100000000000000000000000000000000000000000000000000000000600052601160045260246000fd5b60006134c882612d04565b91506134d383612d04565b9250828210156134e6576134e561348e565b5b828203905092915050565b7f4e487b7100000000000000000000000000000000000000000000000000000000600052603160045260246000fd5b7f4e487b7100000000000000000000000000000000000000000000000000000000600052604160045260246000fd5b600061355a82612d04565b91507fffffffffffffffffffffffffffffffffffffffffffffffffffffffffffffffff82141561358d5761358c61348e565b5b600182019050919050565b600081519050919050565b600082825260208201905092915050565b6000819050602082019050919050565b60006135d08383612e41565b60208301905092915050565b6000602082019050919050565b60006135f482613598565b6135fe81856135a3565b9350613609836135b4565b8060005b8381101561363a57815161362188826135c4565b975061362c836135dc565b92505060018101905061360d565b5085935050505092915050565b600081549050919050565b600082825260208201905092915050565b60008190508160005260206000209050919050565b60006136848383612e00565b60208301905092915050565b60008160001c9050919050565b6000819050919050565b60006136ba6136b583613690565b61369d565b9050919050565b60006136cd82546136a7565b9050919050565b6000600182019050919050565b60006136ec82613647565b6136f68185613652565b935061370183613663565b8060005b8381101561373957613716826136c1565b6137208882613678565b975061372b836136d4565b925050600181019050613705565b5085935050505092915050565b6000604082019050818103600083015261376081856135e9565b9050818103602083015261377481846136e1565b90509392505050565b6000601f19601f8301169050919050565b6137978261377d565b810181811067ffffffffffffffff821117156137b6576137b5613520565b5b80604052505050565b60006137c9612cf0565b90506137d5828261378e565b919050565b600067ffffffffffffffff8211156137f5576137f4613520565b5b602082029050602081019050919050565b60008151905061381581612d0e565b92915050565b600061382e613829846137da565b6137bf565b905080838252602082019050602084028301858111156138515761385061333a565b5b835b8181101561387a57806138668882613806565b845260208401935050602081019050613853565b5050509392505050565b600082601f83011261389957613898613330565b5b81516138a984826020860161381b565b91505092915050565b6000602082840312156138c8576138c7612cfa565b5b600082015167ffffffffffffffff8111156138e6576138e5612cff565b5b6138f284828501613884565b91505092915050565b600061390682612d04565b915061391183612d04565b9250827fffffffffffffffffffffffffffffffffffffffffffffffffffffffffffffffff038211156139465761394561348e565b5b828201905092915050565b7f4e487b7100000000000000000000000000000000000000000000000000000000600052601260045260246000fd5b600061398b82612d04565b915061399683612d04565b9250826139a6576139a5613951565b5b828204905092915050565b60006139bc82612d04565b91506139c783612d04565b9250817fffffffffffffffffffffffffffffffffffffffffffffffffffffffffffffffff0483118215151615613a00576139ff61348e565b5b828202905092915050565b600060208284031215613a2157613a20612cfa565b5b6000613a2f84828501613806565b91505092915050565b6000606082019050613a4d6000830186613146565b613a5a6020830185613146565b613a6760408301846130a0565b949350505050565b613a7881613296565b8114613a8357600080fd5b50565b600081519050613a9581613a6f565b92915050565b600060208284031215613ab157613ab0612cfa565b5b6000613abf84828501613a86565b91505092915050565b6000604082019050613add6000830185613146565b613aea60208301846130a0565b9392505050565b6000606082019050613b0660008301866130a0565b613b136020830185613146565b613b2060408301846130a0565b949350505050565b7f706f736974696f6e206f7574206f662072616e67650000000000000000000000600082015250565b6000613b5e6015836133e2565b9150613b6982613b28565b602082019050919050565b60006020820190508181036000830152613b8d81613b51565b9050919050565b6000604082019050613ba960008301856130a0565b613bb660208301846130a0565b9392505050565b613bc681612d93565b8114613bd157600080fd5b50565b60008135613be181613bbd565b80915050919050565b60008160001b9050919050565b600063ffffffff613c0784613bea565b9350801983169250808416831791505092915050565b6000613c38613c33613c2e84612d93565b612f5d565b612d93565b9050919050565b6000819050919050565b613c5282613c1d565b613c65613c5e82613c3f565b8354613bf7565b8255505050565b60008160201b9050919050565b600067ffffffff00000000613c8d84613c6c565b9350801983169250808416831791505092915050565b613cac82613c1d565b613cbf613cb882613c3f565b8354613c79565b8255505050565b613ccf81612db2565b8114613cda57600080fd5b50565b60008135613cea81613cc6565b80915050919050565b60008160401b9050919050565b60006fffffffffffffffff0000000000000000613d1c84613cf3565b9350801983169250808416831791505092915050565b6000613d4d613d48613d4384612db2565b612f5d565b612db2565b9050919050565b6000819050919050565b613d6782613d32565b613d7a613d7382613d54565b8354613d00565b8255505050565b613d8a81612dd5565b8114613d9557600080fd5b50565b60008135613da581613d81565b80915050919050565b60008160801b9050919050565b60007fffffffffffffffffffffffffffffffff00000000000000000000000000000000613de784613dae565b9350801983169250808416831791505092915050565b6000613e18613e13613e0e84612dd5565b612f5d565b612dd5565b9050919050565b6000819050919050565b613e3282613dfd565b613e45613e3e82613e1f565b8354613dbb565b8255505050565b600081016000830180613e5e81613bd4565b9050613e6a8184613c49565b505050600081016020830180613e7f81613bd4565b9050613e8b8184613ca3565b505050600081016040830180613ea081613cdd565b9050613eac8184613d5e565b505050600081016060830180613ec181613d98565b9050613ecd8184613e29565b5050505050565b613ede8282613e4c565b5050565b7f4f776e61626c653a206e6577206f776e657220697320746865207a65726f206160008201527f6464726573730000000000000000000000000000000000000000000000000000602082015250565b6000613f3e6026836133e2565b9150613f4982613ee2565b604082019050919050565b60006020820190508181036000830152613f6d81613f31565b905091905056fea26469706673582212201b2da1daa7566347b6976ece6a900b646fbc0e76b31a8c03cd78f7d766db2ed664736f6c63430008090033",
  "linkReferences": {},
  "deployedLinkReferences": {}
}